:100000000C9485000C94A2000C94A2000C94A20005
:100010000C94A2000C94A2000C94A2000C94A200D8
:100020000C94A2000C94A2000C94A2000C94A200C8
:100030000C94A2000C94A2000C94A2000C94A200B8
:100040000C94A2000C94A2000C94A2000C94A200A8
:100050000C94A2000C94A2000C94A2000C94A20098
:100060000C94A4000C94A200BE0010011001100119
:100070001001100110011001BE001001100110014B
:100080001001100110011001C00010011001100139
:1000900010011001100110011001100110011001D8
:1000A0001001100110011001C00010011001100119
:1000B00010011001100110011001100110011001B8
:1000C00010011001100110010C01100110011001AC
:1000D0001001100110011001E900100110011001C0
:1000E0001001100110011001100110011001100188
:1000F0001001100110011001DD00100110011001AC
:100100001001100110011001FB0011241FBECFEFE0
:10011000D8E0DEBFCDBF11E0A0E0B1E0EEEEFBE045
:1001200002C005900D92AA35B107D9F721E0AAE5E2
:10013000B1E001C01D92A536B207E1F70E94F601B9
:100140000C94F5050C9400001F920F920FB60F92BD
:1001500011242F933F938F939F93AF93BF93EF936C
:10016000FF938091B90090E0FC013897E135F105EB
:1001700008F056C0EC5CFF4F0C94FA0210925A0142
:10018000E0915A0180915C01E81770F481E08E0FD4
:1001900080935A01F0E0E35AFE4F80818093BB00C8
:1001A00085E88093BC0043C080915B0181608093AF
:1001B0005B0184E98093BC003AC0E0915A0181E080
:1001C0008E0F80935A018091BB00F0E0E35AFE4FFE
:1001D000808320915A0130E080915C0190E001978A
:1001E0002817390724F485EC8093BC0020C085E8EB
:1001F0008093BC001CC08091BB00E0915A01F0E0EC
:10020000E35AFE4F808380915B01816080935B01A4
:1002100084E98093BC000BC085EA8093BC0007C0D2
:100220008091B9008093000184E08093BC00FF912D
:10023000EF91BF91AF919F918F913F912F910F902F
:100240000FBE0F901F90189581E091E00895E0ECAB
:10025000F0E095838483108288E9818386E082833D
:100260000895E0ECF0E0908195FFFDCFE0ECF0E048
:10027000868308950E94310180E090E00895E0ECCB
:10028000F0E080818823ECF7E0ECF0E086810895CF
:100290008FE091E00895611102C0289801C0289A6A
:1002A0009BB19F70282F207F922B9BB945E04A95E8
:1002B000F1F70000299A95E09A95F1F70000299846
:1002C00040EF4A95F1F79BB140E1849F90011124E2
:1002D0009F70292B2BB995E09A95F1F70000299A88
:1002E00045E04A95F1F70000299890EF9A95F1F7CB
:1002F000611108C0843030F48FE39FE10197F1F77A
:1003000000C00000089561E00E944B0181E090E090
:100310000895209A219A8AB1806F8AB928982998DD
:100320002FEF89EF90E0215080409040E1F700C02E
:1003300000008BB18F7080638BB925E02A95F1F7AF
:100340000000299A85E08A95F1F70000299890EF3E
:100350009A95F1F78FE19EE40197F1F700C0000054
:1003600095E09A95F1F70000299A25E02A95F1F792
:100370000000299880EF8A95F1F78FE193E00197CB
:10038000F1F700C0000095E09A95F1F70000299A76
:1003900025E02A95F1F70000299880EF8A95F1F77A
:1003A0008BB18F7080628BB995E09A95F1F7000060
:1003B000299A25E02A95F1F70000299880EF8A957F
:1003C000F1F760E088E20E944B0160E088E00E9463
:1003D0004B0160E081E00E944B0160E08CE00E94F4
:1003E0004B0160E080E80E944B0108950E94FF01EC
:1003F00060E080E80E944B010E941202F9CF0E9447
:10040000480190936201809361010E9424019093BE
:100410006401809363010E94890187E690E00E9455
:1004200027010895AF92BF92CF92DF92EF92FF9291
:100430000F931F93CF93DF93CDB7DEB729970FB6F6
:10044000F894DEBF0FBECDBF2091630130916401EF
:1004500049E050E061E070E08DE191E00E9412031C
:100460008E010F5F1F4F7E0189E0E80EF11C0E9494
:100470003F01F80181938F01EE15FF05C1F7FA8066
:100480000B811C81DD80CE80AF80B88489811F9272
:100490008F9387E291E09F938F93809164018F9374
:1004A000809163018F930E9400031F92FF9282E369
:1004B00091E09F938F93809164018F93809163016A
:1004C0008F930E9400031F920F938CE391E09F9300
:1004D0008F93809164018F93809163018F930E9429
:1004E00000031F921F9307E311E01F930F93809166
:1004F00064018F93809163018F930E9400031F9288
:10050000DF920F2EF4E4EF2EF1E0FF2EF02DFF929C
:10051000EF92809164018F93809163018F930E9489
:1005200000031F92CF921F930F93809164018F93CA
:10053000809163018F930E9400030FB6F894DEBF91
:100540000FBECDBF1F92AF928DE491E09F938F932A
:10055000809164018F93809163018F930E940003C7
:100560001F92BF921F930F93809164018F9380918C
:1005700063018F930E940003CE0101969F938F9396
:1005800085E591E09F938F93809164018F93809193
:1005900063018F930E9400031F92CF92FF92EF920C
:1005A000809164018F93809163018F930E94000377
:1005B0001F92DF921F930F93809164018F9380911C
:1005C00063018F930E9400030FB6F894DEBF0FBE45
:1005D000CDBF29960FB6F894DEBF0FBECDBFDF9119
:1005E000CF911F910F91FF90EF90DF90CF90BF9030
:1005F000AF900895EE0FFF1F0590F491E02D099440
:10060000A0E0B0E0E6E0F3E00C94CE05AE01475F79
:100610005F4F6F8178858D819E810E944603E2E065
:100620000C94EA05A0E0B0E0E8E1F3E00C94C40526
:100630006B014A017901D90113962C9121FF1DC04C
:10064000C0E0D0E0C815D905D9F08C015C01AC0C34
:10065000BD1CC8010A151B0571F00F5F1F4FD701A4
:100660001896ED91FC911997B701DC018C910995D1
:10067000892B79F305C02196E5CF80E090E001C099
:10068000CE01CDB7DEB7ECE00C94E005ACE0B0E015
:10069000ECE4F3E00C94BE057C016B018A01FC01E3
:1006A00017821682838181FFBDC1CE0101964C0164
:1006B000F7019381F60193FD859193FF81916F017D
:1006C000882309F4ABC1853239F493FD859193FFFA
:1006D00081916F01853229F4B70190E00E942E05C7
:1006E000E7CF512C312C20E02032A0F48B3269F07E
:1006F00030F4803259F0833269F420612CC08D329D
:1007000039F0803339F4216026C02260246023C090
:10071000286021C027FD27C030ED380F3A3078F42B
:1007200026FF06C0FAE05F9E300D1124532E13C041
:100730008AE0389E300D1124332E20620CC08E3298
:1007400021F426FD6BC1206406C08C3611F42068AC
:1007500002C0883641F4F60193FD859193FF8191A3
:100760006F018111C1CF982F9F7D9554933028F44C
:100770000C5F1F4FFFE3F9830DC0833631F08337E1
:1007800071F0833509F05BC022C0F8018081898354
:100790000E5F1F4F44244394512C540115C038015F
:1007A000F2E06F0E711CF801A080B18026FF03C03B
:1007B000652D70E002C06FEF7FEFC5012C870E94AE
:1007C00023052C0183012C852F77222E17C0380199
:1007D000F2E06F0E711CF801A080B18026FF03C00B
:1007E000652D70E002C06FEF7FEFC5012C870E947E
:1007F00018052C012C852068222E830123FC1BC0A8
:10080000832D90E048165906B0F4B70180E290E0DD
:100810000E942E053A94F4CFF50127FC859127FE1E
:1008200081915F01B70190E00E942E0531103A944A
:10083000F1E04F1A51084114510471F7E5C08436B4
:1008400011F0893639F5F80127FF07C06081718101
:10085000828193810C5F1F4F08C06081718188275E
:1008600077FD8095982F0E5F1F4F2F76B22E97FF42
:1008700009C090958095709561957F4F8F4F9F4FE0
:100880002068B22E2AE030E0A4010E946005A82E64
:10089000A81844C0853729F42F7EB22E2AE030E014
:1008A00025C0F22FF97FBF2E8F36C1F018F488359E
:1008B00079F0B4C0803719F0883721F0AFC02F2FFE
:1008C0002061B22EB4FE0DC08B2D8460B82E09C0FD
:1008D00024FF0AC09F2F9660B92E06C028E030E0A2
:1008E00005C020E130E002C020E132E0F801B7FEAF
:1008F00007C060817181828193810C5F1F4F06C0A8
:100900006081718180E090E00E5F1F4FA4010E9422
:100910006005A82EA818FB2DFF77BF2EB6FE0BC0D2
:100920002B2D2E7FA51450F4B4FE0AC0B2FC08C0D3
:100930002B2D2E7E05C07A2C2B2D03C07A2C01C0C6
:10094000752C24FF0DC0FE01EA0DF11D808180335E
:1009500011F4297E09C022FF06C07394739404C069
:10096000822F867809F0739423FD13C020FF06C000
:100970005A2C731418F4530C5718732C731468F40E
:10098000B70180E290E02C870E942E0573942C859D
:10099000F5CF731410F4371801C0312C24FF12C0A6
:1009A000B70180E390E02C870E942E052C8522FF62
:1009B00017C021FF03C088E590E002C088E790E0FF
:1009C000B7010CC0822F867859F021FD02C080E269
:1009D00001C08BE227FD8DE2B70190E00E942E0559
:1009E000A51438F4B70180E390E00E942E055A94D4
:1009F000F7CFAA94F401EA0DF11D8081B70190E0D0
:100A00000E942E05A110F5CF332009F451CEB70175
:100A100080E290E00E942E053A94F6CFF70186819D
:100A2000978102C08FEF9FEF2C96E2E10C94DA05DC
:100A3000FC010590615070400110D8F780959095A9
:100A40008E0F9F1F0895FC016150704001900110AE
:100A5000D8F7809590958E0F9F1F08950F931F9341
:100A6000CF93DF93182F092FEB018B8181FD03C0FA
:100A70008FEF9FEF20C082FF10C04E815F812C81DD
:100A80003D81421753077CF4E881F9819F012F5F74
:100A90003F4F39832883108306C0E885F985812F6D
:100AA0000995892B29F72E813F812F5F3F4F3F8387
:100AB0002E83812F902FDF91CF911F910F91089559
:100AC000FA01AA27283051F1203181F1E8946F937F
:100AD0006E7F6E5F7F4F8F4F9F4FAF4FB1E03ED025
:100AE000B4E03CD0670F781F891F9A1FA11D680FC3
:100AF000791F8A1F911DA11D6A0F711D811D911DF6
:100B0000A11D20D009F468943F912AE0269F11246A
:100B10003019305D3193DEF6CF010895462F4770CE
:100B2000405D4193B3E00FD0C9F7F6CF462F4F7029
:100B3000405D4A3318F0495D31FD4052419302D087
:100B4000A9F7EACFB4E0A69597958795779567952D
:100B5000BA95C9F700976105710508959B01AC012D
:100B60000A2E06945795479537952795BA95C9F754
:100B7000620F731F841F951FA01D08952F923F922F
:100B80004F925F926F927F928F929F92AF92BF929D
:100B9000CF92DF92EF92FF920F931F93CF93DF9349
:100BA000CDB7DEB7CA1BDB0B0FB6F894DEBF0FBEA6
:100BB000CDBF09942A88398848885F846E847D84F3
:100BC0008C849B84AA84B984C884DF80EE80FD80F5
:100BD0000C811B81AA81B981CE0FD11D0FB6F8946B
:0E0BE000DEBF0FBECDBFED010895F894FFCF2C
:100BEE00F800000002000000003A010000000000C2
:100BFE00000002000000008301000000004D6F6441
:100C0E006275733A0A0D00416464723A2025630AD4
:100C1E000D00436D643A2025630A0D005265673A54
:100C2E0020256300446174613A20256300435243DA
:0A0C3E003A2025630025730D000025
:00000001FF
