:100000000C9485000C94A2000C94A2000C94A20005
:100010000C94A2000C94A2000C94A2000C94A200D8
:100020000C94A2000C94A2000C94A2000C94A200C8
:100030000C94A2000C94A2000C94A2000C94A200B8
:100040000C94A2000C94A2000C94A2000C94A200A8
:100050000C94A2000C94A2000C94A2000C94A20098
:100060000C94A4000C94A200BE0010011001100119
:100070001001100110011001BE001001100110014B
:100080001001100110011001C00010011001100139
:1000900010011001100110011001100110011001D8
:1000A0001001100110011001C00010011001100119
:1000B00010011001100110011001100110011001B8
:1000C00010011001100110010C01100110011001AC
:1000D0001001100110011001E900100110011001C0
:1000E0001001100110011001100110011001100188
:1000F0001001100110011001DD00100110011001AC
:100100001001100110011001FB0011241FBECFEFE0
:10011000D8E0DEBFCDBF11E0A0E0B1E0E0E1FDE05E
:1001200002C005900D92AE35B107D9F721E0AEE5DA
:10013000B1E001C01D92A936B207E1F70E94F601B5
:100140000C9486060C9400001F920F920FB60F922B
:1001500011242F933F938F939F93AF93BF93EF936C
:10016000FF938091B90090E0FC013897E135F105EB
:1001700008F056C0EC5CFF4F0C948B0310925E01AC
:10018000E0915E0180916001E81770F481E08E0FCC
:1001900080935E01F0E0EF59FE4F80818093BB00B9
:1001A00085E88093BC0043C080915F0181608093AB
:1001B0005F0184E98093BC003AC0E0915E0181E078
:1001C0008E0F80935E018091BB00F0E0EF59FE4FEF
:1001D000808320915E0130E08091600190E0019782
:1001E0002817390724F485EC8093BC0020C085E8EB
:1001F0008093BC001CC08091BB00E0915E01F0E0E8
:10020000EF59FE4F808380915F01816080935F0191
:1002100084E98093BC000BC085EA8093BC0007C0D2
:100220008091B9008093000184E08093BC00FF912D
:10023000EF91BF91AF919F918F913F912F910F902F
:100240000FBE0F901F90189581E091E00895E0ECAB
:10025000F0E095838483108288E9818386E082833D
:100260000895E0ECF0E0908195FFFDCFE0ECF0E048
:10027000868308950E94310180E090E00895E0ECCB
:10028000F0E080818823ECF7E0ECF0E086810895CF
:100290008FE091E00895611102C0289801C0289A6A
:1002A0009BB19F70282F207F922B9BB945E04A95E8
:1002B000F1F70000299A95E09A95F1F70000299846
:1002C00040EF4A95F1F79BB140E1849F90011124E2
:1002D0009F70292B2BB995E09A95F1F70000299A88
:1002E00045E04A95F1F70000299890EF9A95F1F7CB
:1002F000611108C0843030F48FE39FE10197F1F77A
:1003000000C00000089561E00E944B0181E090E090
:100310000895209A219A8AB1806F8AB928982998DD
:100320002FEF89EF90E0215080409040E1F700C02E
:1003300000008BB18F7080638BB925E02A95F1F7AF
:100340000000299A85E08A95F1F70000299890EF3E
:100350009A95F1F78FE19EE40197F1F700C0000054
:1003600095E09A95F1F70000299A25E02A95F1F792
:100370000000299880EF8A95F1F78FE193E00197CB
:10038000F1F700C0000095E09A95F1F70000299A76
:1003900025E02A95F1F70000299880EF8A95F1F77A
:1003A0008BB18F7080628BB995E09A95F1F7000060
:1003B000299A25E02A95F1F70000299880EF8A957F
:1003C000F1F760E088E20E944B0160E088E00E9463
:1003D0004B0160E081E00E944B0160E08CE00E94F4
:1003E0004B0160E080E80E944B0108950E940302E7
:1003F00060E080E80E944B010E94160260E070E01D
:100400000E947C03F5CF0E9448019093660180937F
:1004100065010E94240190936801809367010E9406
:10042000890187E690E00E94270108958F929F92AC
:10043000AF92BF92CF92DF92EF92FF920F931F93F2
:10044000CF93DF93CDB7DEB762970FB6F894DEBFD8
:100450000FBECDBF60E080E80E944B012091670194
:10046000309168014AE050E061E070E08DE191E098
:100470000E94D50360916501709166018DE490E062
:100480000E94A30360916501709166018FE490E082
:100490000E94A303609165017091660184E490E07D
:1004A0000E94A303609165017091660182E490E06F
:1004B0000E94A303609165017091660185E590E05B
:1004C0000E94A303609165017091660183E590E04D
:1004D0000E94A3038E01065F1F4F7E0182E1E80E9A
:1004E000F11C0E943F01F80181938F01EE15FF0579
:1004F000C1F78A8589838B858A838C858B838D85DB
:100500008C838E858D838F858E8388898F8389895F
:10051000888719868FE39CE90197F1F700C00000F6
:10052000FE0131964F019F92EF9388E291E09F93F5
:100530008F93809168018F93809167018F930E94C0
:10054000910389811F928F938CE291E09F938F9307
:10055000809168018F93809167018F930E9491032E
:100560008A811F928F9387E391E09F938F9380916D
:1005700068018F93809167018F930E9491038B8113
:100580001F928F9381E491E09F938F9380916801F4
:100590008F93809167018F930E9491038C811F92AA
:1005A0008F930CE311E01F930F93809168018F9359
:1005B000809167018F930E9491038D811F928F9389
:1005C0000F2EF9E4EF2EF1E0FF2EF02DFF92EF92C7
:1005D000809168018F93809167018F930E949103AE
:1005E0000FB6F894DEBF0FBECDBF8E811F928F93E2
:1005F0001F930F93809168018F93809167018F9370
:100600000E9491038F811F928F9382E591E09F93C7
:100610008F93809168018F93809167018F930E94DF
:10062000910388851F928F931F930F938091680188
:100630008F93809167018F930E9491035E019AE0EE
:10064000A90EB11CBF92AF920F2EFAE5CF2EF1E0AA
:10065000DF2EF02DDF92CF92809168018F938091F1
:1006600067018F930E949103BF92AF92DF92CF9266
:10067000809168018F93809167018F930E9491030D
:100680009D818E818D839E831F928F93FF92EF9227
:10069000809168018F93809167018F930E949103ED
:1006A0000FB6F894DEBF0FBECDBF8E811F928F9321
:1006B0001F930F93809168018F93809167018F93AF
:1006C0000E9491030F900F900F900F900F900F903A
:1006D000C40162960FB6F894DEBF0FBECDBFDF91A6
:1006E000CF911F910F91FF90EF90DF90CF90BF902F
:1006F000AF909F908F9008951F93CF93DF93EC015D
:1007000010E089910E9431011F5F1830D1F7DF910D
:10071000CF911F910895EE0FFF1F0590F491E02DEA
:100720000994A0E0B0E0E7E9F3E00C945F06AE01C5
:10073000475F5F4F6F8178858D819E810E9409049C
:10074000E2E00C947B060F931F93CF93DF93182F57
:10075000092FEB018B8181FD03C08FEF9FEF20C03C
:1007600082FF10C04E815F812C813D81421753076B
:100770007CF4E881F9819F012F5F3F4F3983288303
:10078000108306C0E885F985812F0995892B29F703
:100790002E813F812F5F3F4F3F832E83812F902FEC
:1007A000DF91CF911F910F910895A0E0B0E0EBEDA4
:1007B000F3E00C9455066B014A017901D9011396B7
:1007C0002C9121FF1DC0C0E0D0E0C815D905D9F09B
:1007D0008C015C01AC0CBD1CC8010A151B0571F035
:1007E0000F5F1F4FD7011896ED91FC911997B70134
:1007F000DC018C910995892B79F305C02196E5CF11
:1008000080E090E001C0CE01CDB7DEB7ECE00C9403
:100810007106ACE0B0E0EFE0F4E00C944F067C0130
:100820006B018A01FC0117821682838181FFBDC1A1
:10083000CE0101964C01F7019381F60193FD85915C
:1008400093FF81916F01882309F4ABC1853239F49C
:1008500093FD859193FF81916F01853229F4B70152
:1008600090E00E94A303E7CF512C312C20E02032EE
:10087000A0F48B3269F030F4803259F0833269F49D
:1008800020612CC08D3239F0803339F4216026C0CC
:100890002260246023C0286021C027FD27C030EDDE
:1008A000380F3A3078F426FF06C0FAE05F9E300D2C
:1008B0001124532E13C08AE0389E300D1124332E9C
:1008C00020620CC08E3221F426FD6BC1206406C06C
:1008D0008C3611F4206802C0883641F4F60193FD8D
:1008E000859193FF81916F018111C1CF982F9F7DD9
:1008F0009554933028F40C5F1F4FFFE3F9830DC02C
:10090000833631F0833771F0833509F05BC022C044
:10091000F801808189830E5F1F4F44244394512C3A
:10092000540115C03801F2E06F0E711CF801A0806F
:10093000B18026FF03C0652D70E002C06FEF7FEF2E
:10094000C5012C870E94E6052C0183012C852F7799
:10095000222E17C03801F2E06F0E711CF801A08042
:10096000B18026FF03C0652D70E002C06FEF7FEFFE
:10097000C5012C870E94DB052C012C852068222EC6
:10098000830123FC1BC0832D90E048165906B0F468
:10099000B70180E290E00E94A3033A94F4CFF501FE
:1009A00027FC859127FE81915F01B70190E00E94AD
:1009B000A30331103A94F1E04F1A51084114510445
:1009C00071F7E5C0843611F0893639F5F80127FF53
:1009D00007C060817181828193810C5F1F4F08C0C5
:1009E00060817181882777FD8095982F0E5F1F4F5A
:1009F0002F76B22E97FF09C09095809570956195DE
:100A00007F4F8F4F9F4F2068B22E2AE030E0A40125
:100A10000E94F105A82EA81844C0853729F42F7E1E
:100A2000B22E2AE030E025C0F22FF97FBF2E8F369C
:100A3000C1F018F4883579F0B4C0803719F08837E0
:100A400021F0AFC02F2F2061B22EB4FE0DC08B2D30
:100A50008460B82E09C024FF0AC09F2F9660B92E6B
:100A600006C028E030E005C020E130E002C020E10F
:100A700032E0F801B7FE07C0608171818281938105
:100A80000C5F1F4F06C06081718180E090E00E5FB7
:100A90001F4FA4010E94F105A82EA818FB2DFF7777
:100AA000BF2EB6FE0BC02B2D2E7FA51450F4B4FE26
:100AB0000AC0B2FC08C02B2D2E7E05C07A2C2B2D2F
:100AC00003C07A2C01C0752C24FF0DC0FE01EA0D75
:100AD000F11D8081803311F4297E09C022FF06C0F8
:100AE0007394739404C0822F867809F0739423FD65
:100AF00013C020FF06C05A2C731418F4530C571857
:100B0000732C731468F4B70180E290E02C870E9484
:100B1000A30373942C85F5CF731410F4371801C018
:100B2000312C24FF12C0B70180E390E02C870E9493
:100B3000A3032C8522FF17C021FF03C088E590E0A6
:100B400002C088E790E0B7010CC0822F867859F088
:100B500021FD02C080E201C08BE227FD8DE2B701DA
:100B600090E00E94A303A51438F4B70180E390E05D
:100B70000E94A3035A94F7CFAA94F401EA0DF11D41
:100B80008081B70190E00E94A303A110F5CF33202C
:100B900009F451CEB70180E290E00E94A3033A9499
:100BA000F6CFF7018681978102C08FEF9FEF2C96D9
:100BB000E2E10C946B06FC0105906150704001105D
:100BC000D8F7809590958E0F9F1F0895FC01615076
:100BD000704001900110D8F7809590958E0F9F1F5F
:100BE0000895FA01AA27283051F1203181F1E894C3
:100BF0006F936E7F6E5F7F4F8F4F9F4FAF4FB1E010
:100C00003ED0B4E03CD0670F781F891F9A1FA11D0A
:100C1000680F791F8A1F911DA11D6A0F711D811D0B
:100C2000911DA11D20D009F468943F912AE0269FD0
:100C300011243019305D3193DEF6CF010895462F2F
:100C40004770405D4193B3E00FD0C9F7F6CF462F10
:100C50004F70405D4A3318F0495D31FD4052419379
:100C600002D0A9F7EACFB4E0A69597958795779536
:100C70006795BA95C9F700976105710508959B01BD
:100C8000AC010A2E06945795479537952795BA9546
:100C9000C9F7620F731F841F951FA01D08952F921F
:100CA0003F924F925F926F927F928F929F92AF92FC
:100CB000BF92CF92DF92EF92FF920F931F93CF9349
:100CC000DF93CDB7DEB7CA1BDB0B0FB6F894DEBFE0
:100CD0000FBECDBF09942A88398848885F846E8406
:100CE0007D848C849B84AA84B984C884DF80EE8050
:100CF000FD800C811B81AA81B981CE0FD11D0FB659
:100D0000F894DEBF0FBECDBFED010895F894FFCF7C
:100D1000F800000002000000003A0100000000009E
:100D2000000002000000008301000000000A4D6F77
:100D3000646275733A0A0D0025700D004164647297
:100D40003A2025630A0D00436D643A2025630A0D9D
:100D5000005265673A20256300446174613A20259A
:0E0D600063004352433A2025630025730D00C3
:00000001FF
